:1000000009C021C020C01FC01EC01DC01CC01BC015
:100010001AC019C011241FBECFE9CDBF10E0A0E661
:10002000B0E0E8E9F0E002C005900D92A036B1071B
:10003000D9F710E0A0E6B0E001C01D92A736B107E5
:10004000E1F702D027C0DCCF84E387BB8AE080934E
:10005000660020EE3EE240E118BAC9010197F1F7CF
:1000600048BBC9010197F1F7F7CF84E387BB089537
:1000700096B1936896B987B9369A349BFECF349A75
:10008000369A349BFECF24B135B1349A379817B8DD
:08009000C9010895F894FFCFA7
:00000001FF
